{
  "abi": [
    {
      "inputs": [],
      "name": "number",
      "outputs": [
        {
          "internalType": "uint256",
          "name": "",
          "type": "uint256"
        }
      ],
      "stateMutability": "view",
      "type": "function"
    },
    {
      "inputs": [
        {
          "internalType": "uint256",
          "name": "newNumber",
          "type": "uint256"
        }
      ],
      "name": "setNumber",
      "outputs": [],
      "stateMutability": "nonpayable",
      "type": "function"
    }
  ],
  "bytecode": {
    "object": "0x608060405234801561001057600080fd5b5060b18061001f6000396000f3fe6080604052348015600f57600080fd5b506004361060325760003560e01c80633fb5c1cb1460375780638381f58a146049575b600080fd5b604760423660046063565b600055565b005b605160005481565b60405190815260200160405180910390f35b600060208284031215607457600080fd5b503591905056fea2646970667358221220b045c9d72c3ce3fed7378a2e72ae96d074db628a62fff6d947d89d7742c06e3c64736f6c634300080d0033",
    "linkReferences": {}
  }
}