{
    "_format": "hh-sol-artifact-1",
    "contractName": "Raffle",
    "sourceName": "contracts/Raffle.sol",
    "abi": [
        {
            "inputs": [
                {
                    "internalType": "uint256",
                    "name": "entranceFee",
                    "type": "uint256"
                },
                {
                    "internalType": "uint256",
                    "name": "interval",
                    "type": "uint256"
                },
                {
                    "internalType": "address",
                    "name": "vrfCoordinatorV2",
                    "type": "address"
                },
                {
                    "internalType": "bytes32",
                    "name": "gasLane",
                    "type": "bytes32"
                },
                {
                    "internalType": "uint64",
                    "name": "subscriptionId",
                    "type": "uint64"
                },
                {
                    "internalType": "uint32",
                    "name": "callbackGasLimit",
                    "type": "uint32"
                }
            ],
            "stateMutability": "nonpayable",
            "type": "constructor"
        },
        {
            "inputs": [
                {
                    "internalType": "address",
                    "name": "have",
                    "type": "address"
                },
                {
                    "internalType": "address",
                    "name": "want",
                    "type": "address"
                }
            ],
            "name": "OnlyCoordinatorCanFulfill",
            "type": "error"
        },
        {
            "inputs": [],
            "name": "Raffle__RaffleNotOpen",
            "type": "error"
        },
        {
            "inputs": [],
            "name": "Raffle__SendMoreToEnterRaffle",
            "type": "error"
        },
        {
            "inputs": [],
            "name": "Raffle__TransferFailed",
            "type": "error"
        },
        {
            "inputs": [],
            "name": "Raffle__UpkeepNotNeeded",
            "type": "error"
        },
        {
            "anonymous": false,
            "inputs": [
                {
                    "indexed": true,
                    "internalType": "address",
                    "name": "player",
                    "type": "address"
                }
            ],
            "name": "RaffleEnter",
            "type": "event"
        },
        {
            "anonymous": false,
            "inputs": [
                {
                    "indexed": true,
                    "internalType": "uint256",
                    "name": "requestId",
                    "type": "uint256"
                }
            ],
            "name": "RequestedRaffleWinner",
            "type": "event"
        },
        {
            "anonymous": false,
            "inputs": [
                {
                    "indexed": true,
                    "internalType": "address",
                    "name": "winner",
                    "type": "address"
                }
            ],
            "name": "WinnerPicked",
            "type": "event"
        },
        {
            "inputs": [],
            "name": "NUM_WORDS",
            "outputs": [
                {
                    "internalType": "uint32",
                    "name": "",
                    "type": "uint32"
                }
            ],
            "stateMutability": "view",
            "type": "function"
        },
        {
            "inputs": [],
            "name": "REQUEST_CONFIRMATIONS",
            "outputs": [
                {
                    "internalType": "uint16",
                    "name": "",
                    "type": "uint16"
                }
            ],
            "stateMutability": "view",
            "type": "function"
        },
        {
            "inputs": [
                {
                    "internalType": "bytes",
                    "name": "",
                    "type": "bytes"
                }
            ],
            "name": "checkUpkeep",
            "outputs": [
                {
                    "internalType": "bool",
                    "name": "upkeepNeeded",
                    "type": "bool"
                },
                {
                    "internalType": "bytes",
                    "name": "",
                    "type": "bytes"
                }
            ],
            "stateMutability": "view",
            "type": "function"
        },
        {
            "inputs": [],
            "name": "enterRaffle",
            "outputs": [],
            "stateMutability": "payable",
            "type": "function"
        },
        {
            "inputs": [],
            "name": "i_callbackGasLimit",
            "outputs": [
                {
                    "internalType": "uint32",
                    "name": "",
                    "type": "uint32"
                }
            ],
            "stateMutability": "view",
            "type": "function"
        },
        {
            "inputs": [],
            "name": "i_entranceFee",
            "outputs": [
                {
                    "internalType": "uint256",
                    "name": "",
                    "type": "uint256"
                }
            ],
            "stateMutability": "view",
            "type": "function"
        },
        {
            "inputs": [],
            "name": "i_gasLane",
            "outputs": [
                {
                    "internalType": "bytes32",
                    "name": "",
                    "type": "bytes32"
                }
            ],
            "stateMutability": "view",
            "type": "function"
        },
        {
            "inputs": [],
            "name": "i_interval",
            "outputs": [
                {
                    "internalType": "uint256",
                    "name": "",
                    "type": "uint256"
                }
            ],
            "stateMutability": "view",
            "type": "function"
        },
        {
            "inputs": [],
            "name": "i_subscriptionId",
            "outputs": [
                {
                    "internalType": "uint64",
                    "name": "",
                    "type": "uint64"
                }
            ],
            "stateMutability": "view",
            "type": "function"
        },
        {
            "inputs": [],
            "name": "i_vrfCoordinator",
            "outputs": [
                {
                    "internalType": "contract VRFCoordinatorV2Interface",
                    "name": "",
                    "type": "address"
                }
            ],
            "stateMutability": "view",
            "type": "function"
        },
        {
            "inputs": [
                {
                    "internalType": "bytes",
                    "name": "",
                    "type": "bytes"
                }
            ],
            "name": "performUpkeep",
            "outputs": [],
            "stateMutability": "nonpayable",
            "type": "function"
        },
        {
            "inputs": [
                {
                    "internalType": "uint256",
                    "name": "requestId",
                    "type": "uint256"
                },
                {
                    "internalType": "uint256[]",
                    "name": "randomWords",
                    "type": "uint256[]"
                }
            ],
            "name": "rawFulfillRandomWords",
            "outputs": [],
            "stateMutability": "nonpayable",
            "type": "function"
        },
        {
            "inputs": [],
            "name": "s_lastTimestamp",
            "outputs": [
                {
                    "internalType": "uint256",
                    "name": "",
                    "type": "uint256"
                }
            ],
            "stateMutability": "view",
            "type": "function"
        },
        {
            "inputs": [
                {
                    "internalType": "uint256",
                    "name": "",
                    "type": "uint256"
                }
            ],
            "name": "s_players",
            "outputs": [
                {
                    "internalType": "address payable",
                    "name": "",
                    "type": "address"
                }
            ],
            "stateMutability": "view",
            "type": "function"
        },
        {
            "inputs": [],
            "name": "s_raffleState",
            "outputs": [
                {
                    "internalType": "enum Raffle.RaffleState",
                    "name": "",
                    "type": "uint8"
                }
            ],
            "stateMutability": "view",
            "type": "function"
        },
        {
            "inputs": [],
            "name": "s_recentWinner",
            "outputs": [
                {
                    "internalType": "address",
                    "name": "",
                    "type": "address"
                }
            ],
            "stateMutability": "view",
            "type": "function"
        }
    ],
    "bytecode": "0x6101006040523480156200001257600080fd5b506040516200193d3803806200193d83398181016040528101906200003891906200018f565b838073ffffffffffffffffffffffffffffffffffffffff1660808173ffffffffffffffffffffffffffffffffffffffff1660601b81525050508560a081815250508460c08181525050426001819055508373ffffffffffffffffffffffffffffffffffffffff1660e08173ffffffffffffffffffffffffffffffffffffffff1660601b815250508260038190555081600460006101000a81548167ffffffffffffffff021916908367ffffffffffffffff16021790555080600460086101000a81548163ffffffff021916908363ffffffff1602179055505050505050506200031e565b6000815190506200012d816200029c565b92915050565b6000815190506200014481620002b6565b92915050565b6000815190506200015b81620002d0565b92915050565b6000815190506200017281620002ea565b92915050565b600081519050620001898162000304565b92915050565b60008060008060008060c08789031215620001af57620001ae62000297565b5b6000620001bf89828a016200014a565b9650506020620001d289828a016200014a565b9550506040620001e589828a016200011c565b9450506060620001f889828a0162000133565b93505060806200020b89828a0162000178565b92505060a06200021e89828a0162000161565b9150509295509295509295565b6000620002388262000249565b9050919050565b6000819050919050565b600073ffffffffffffffffffffffffffffffffffffffff82169050919050565b6000819050919050565b600063ffffffff82169050919050565b600067ffffffffffffffff82169050919050565b600080fd5b620002a7816200022b565b8114620002b357600080fd5b50565b620002c1816200023f565b8114620002cd57600080fd5b50565b620002db8162000269565b8114620002e757600080fd5b50565b620002f58162000273565b81146200030157600080fd5b50565b6200030f8162000283565b81146200031b57600080fd5b50565b60805160601c60a05160c05160e05160601c6115c36200037a6000396000818161065a015261093001526000818161078d01526107f701526000818161046a01526108a30152600081816103aa01526103fe01526115c36000f3fe6080604052600436106100f35760003560e01c806372cf6e341161008a578063ae771f6b11610059578063ae771f6b146102ea578063aebc455014610327578063cc45483f14610352578063d757d0271461037d576100f3565b806372cf6e341461023e5780637ea3e6c1146102695780638638b0c6146102945780638e879c8a146102bf576100f3565b806367f082b0116100c657806367f082b01461017f5780636919207d146101aa5780636a91604b146101d55780636e04ff0d14610200576100f3565b80631fe543e3146100f85780632cfcc539146101215780634585e33b1461012b578063470cdf9714610154575b600080fd5b34801561010457600080fd5b5061011f600480360381019061011a9190610ed1565b6103a8565b005b610129610468565b005b34801561013757600080fd5b50610152600480360381019061014d9190610de1565b6105d7565b005b34801561016057600080fd5b5061016961076c565b60405161017691906111b8565b60405180910390f35b34801561018b57600080fd5b50610194610786565b6040516101a19190611167565b60405180910390f35b3480156101b657600080fd5b506101bf61078b565b6040516101cc9190611182565b60405180910390f35b3480156101e157600080fd5b506101ea6107af565b6040516101f79190611182565b60405180910390f35b34801561020c57600080fd5b5061022760048036038101906102229190610e2e565b6107b5565b604051610235929190611093565b60405180910390f35b34801561024a57600080fd5b5061025361089c565b604051610260919061119d565b60405180910390f35b34801561027557600080fd5b5061027e6108a1565b60405161028b9190611182565b60405180910390f35b3480156102a057600080fd5b506102a96108c5565b6040516102b69190611034565b60405180910390f35b3480156102cb57600080fd5b506102d46108e9565b6040516102e191906110c3565b60405180910390f35b3480156102f657600080fd5b50610311600480360381019061030c9190610e77565b6108ef565b60405161031e919061104f565b60405180910390f35b34801561033357600080fd5b5061033c61092e565b6040516103499190611131565b60405180910390f35b34801561035e57600080fd5b50610367610952565b604051610374919061114c565b60405180910390f35b34801561038957600080fd5b50610392610965565b60405161039f919061119d565b60405180910390f35b7f000000000000000000000000000000000000000000000000000000000000000073ffffffffffffffffffffffffffffffffffffffff163373ffffffffffffffffffffffffffffffffffffffff161461045a57337f00000000000000000000000000000000000000000000000000000000000000006040517f1cf993f400000000000000000000000000000000000000000000000000000000815260040161045192919061106a565b60405180910390fd5b610464828261097b565b5050565b7f00000000000000000000000000000000000000000000000000000000000000003410156104c2576040517f3038c00a00000000000000000000000000000000000000000000000000000000815260040160405180910390fd5b600060018111156104d6576104d56114a3565b5b600060149054906101000a900460ff1660018111156104f8576104f76114a3565b5b1461052f576040517fd24a271400000000000000000000000000000000000000000000000000000000815260040160405180910390fd5b6002339080600181540180825580915050600190039060005260206000200160009091909190916101000a81548173ffffffffffffffffffffffffffffffffffffffff021916908373ffffffffffffffffffffffffffffffffffffffff1602179055503373ffffffffffffffffffffffffffffffffffffffff167f0805e1d667bddb8a95f0f09880cf94f403fb596ce79928d9f29b74203ba284d460405160405180910390a2565b60006105f1604051806020016040528060008152506107b5565b5090508061062b576040517f8e4bc81700000000000000000000000000000000000000000000000000000000815260040160405180910390fd5b6001600060146101000a81548160ff02191690836001811115610651576106506114a3565b5b021790555060007f000000000000000000000000000000000000000000000000000000000000000073ffffffffffffffffffffffffffffffffffffffff16635d3b1d30600354600460009054906101000a900467ffffffffffffffff166003600460089054906101000a900463ffffffff1660016040518663ffffffff1660e01b81526004016106e59594939291906110de565b602060405180830381600087803b1580156106ff57600080fd5b505af1158015610713573d6000803e3d6000fd5b505050506040513d601f19601f820116820180604052508101906107379190610ea4565b9050807fcd6e45c8998311cab7e9d4385596cac867e20a0587194b954fa3a731c93ce78b60405160405180910390a250505050565b600460009054906101000a900467ffffffffffffffff1681565b600381565b7f000000000000000000000000000000000000000000000000000000000000000081565b60015481565b6000606060008060149054906101000a900460ff1660018111156107dc576107db6114a3565b5b600060018111156107f0576107ef6114a3565b5b14905060007f000000000000000000000000000000000000000000000000000000000000000060015442610824919061127c565b119050600080471190506000806002805490501190508280156108445750835b801561084d5750815b80156108565750805b9550856040518060400160405280600381526020017f30783000000000000000000000000000000000000000000000000000000000008152509550955050505050915091565b600181565b7f000000000000000000000000000000000000000000000000000000000000000081565b60008054906101000a900473ffffffffffffffffffffffffffffffffffffffff1681565b60035481565b600281815481106108ff57600080fd5b906000526020600020016000915054906101000a900473ffffffffffffffffffffffffffffffffffffffff1681565b7f000000000000000000000000000000000000000000000000000000000000000081565b600060149054906101000a900460ff1681565b600460089054906101000a900463ffffffff1681565b600060028054905082600081518110610997576109966114d2565b5b60200260200101516109a99190611414565b90506000600282815481106109c1576109c06114d2565b5b9060005260206000200160009054906101000a900473ffffffffffffffffffffffffffffffffffffffff169050806000806101000a81548173ffffffffffffffffffffffffffffffffffffffff021916908373ffffffffffffffffffffffffffffffffffffffff160217905550600067ffffffffffffffff811115610a4957610a48611501565b5b604051908082528060200260200182016040528015610a775781602001602082028036833780820191505090505b5060029080519060200190610a8d929190610bac565b5060008060146101000a81548160ff02191690836001811115610ab357610ab26114a3565b5b02179055504260018190555060008173ffffffffffffffffffffffffffffffffffffffff1647604051610ae59061101f565b60006040518083038185875af1925050503d8060008114610b22576040519150601f19603f3d011682016040523d82523d6000602084013e610b27565b606091505b5050905080610b62576040517fa1d04b3900000000000000000000000000000000000000000000000000000000815260040160405180910390fd5b8173ffffffffffffffffffffffffffffffffffffffff167f5b690ec4a06fe979403046eaeea5b3ce38524683c3001f662c8b5a829632f7df60405160405180910390a25050505050565b828054828255906000526020600020908101928215610c25579160200282015b82811115610c245782518260006101000a81548173ffffffffffffffffffffffffffffffffffffffff021916908373ffffffffffffffffffffffffffffffffffffffff16021790555091602001919060010190610bcc565b5b509050610c329190610c36565b5090565b5b80821115610c4f576000816000905550600101610c37565b5090565b6000610c66610c61846111f8565b6111d3565b90508083825260208201905082856020860282011115610c8957610c8861153a565b5b60005b85811015610cb95781610c9f8882610db7565b845260208401935060208301925050600181019050610c8c565b5050509392505050565b6000610cd6610cd184611224565b6111d3565b905082815260208101848484011115610cf257610cf161153f565b5b610cfd8482856113a1565b509392505050565b600082601f830112610d1a57610d19611535565b5b8135610d2a848260208601610c53565b91505092915050565b60008083601f840112610d4957610d48611535565b5b8235905067ffffffffffffffff811115610d6657610d65611530565b5b602083019150836001820283011115610d8257610d8161153a565b5b9250929050565b600082601f830112610d9e57610d9d611535565b5b8135610dae848260208601610cc3565b91505092915050565b600081359050610dc681611576565b92915050565b600081519050610ddb81611576565b92915050565b60008060208385031215610df857610df7611549565b5b600083013567ffffffffffffffff811115610e1657610e15611544565b5b610e2285828601610d33565b92509250509250929050565b600060208284031215610e4457610e43611549565b5b600082013567ffffffffffffffff811115610e6257610e61611544565b5b610e6e84828501610d89565b91505092915050565b600060208284031215610e8d57610e8c611549565b5b6000610e9b84828501610db7565b91505092915050565b600060208284031215610eba57610eb9611549565b5b6000610ec884828501610dcc565b91505092915050565b60008060408385031215610ee857610ee7611549565b5b6000610ef685828601610db7565b925050602083013567ffffffffffffffff811115610f1757610f16611544565b5b610f2385828601610d05565b9150509250929050565b610f36816112c2565b82525050565b610f45816112b0565b82525050565b610f54816112d4565b82525050565b610f63816112e0565b82525050565b6000610f7482611255565b610f7e8185611260565b9350610f8e8185602086016113b0565b610f978161154e565b840191505092915050565b610fab81611359565b82525050565b610fba8161136b565b82525050565b6000610fcd600083611271565b9150610fd88261155f565b600082019050919050565b610fec816112fd565b82525050565b610ffb8161132b565b82525050565b61100a81611335565b82525050565b61101981611345565b82525050565b600061102a82610fc0565b9150819050919050565b60006020820190506110496000830184610f3c565b92915050565b60006020820190506110646000830184610f2d565b92915050565b600060408201905061107f6000830185610f3c565b61108c6020830184610f3c565b9392505050565b60006040820190506110a86000830185610f4b565b81810360208301526110ba8184610f69565b90509392505050565b60006020820190506110d86000830184610f5a565b92915050565b600060a0820190506110f36000830188610f5a565b6111006020830187611010565b61110d6040830186610fe3565b61111a6060830185611001565b6111276080830184611001565b9695505050505050565b60006020820190506111466000830184610fa2565b92915050565b60006020820190506111616000830184610fb1565b92915050565b600060208201905061117c6000830184610fe3565b92915050565b60006020820190506111976000830184610ff2565b92915050565b60006020820190506111b26000830184611001565b92915050565b60006020820190506111cd6000830184611010565b92915050565b60006111dd6111ee565b90506111e982826113e3565b919050565b6000604051905090565b600067ffffffffffffffff82111561121357611212611501565b5b602082029050602081019050919050565b600067ffffffffffffffff82111561123f5761123e611501565b5b6112488261154e565b9050602081019050919050565b600081519050919050565b600082825260208201905092915050565b600081905092915050565b60006112878261132b565b91506112928361132b565b9250828210156112a5576112a4611445565b5b828203905092915050565b60006112bb8261130b565b9050919050565b60006112cd8261130b565b9050919050565b60008115159050919050565b6000819050919050565b60008190506112f882611562565b919050565b600061ffff82169050919050565b600073ffffffffffffffffffffffffffffffffffffffff82169050919050565b6000819050919050565b600063ffffffff82169050919050565b600067ffffffffffffffff82169050919050565b60006113648261137d565b9050919050565b6000611376826112ea565b9050919050565b60006113888261138f565b9050919050565b600061139a8261130b565b9050919050565b82818337600083830152505050565b60005b838110156113ce5780820151818401526020810190506113b3565b838111156113dd576000848401525b50505050565b6113ec8261154e565b810181811067ffffffffffffffff8211171561140b5761140a611501565b5b80604052505050565b600061141f8261132b565b915061142a8361132b565b92508261143a57611439611474565b5b828206905092915050565b7f4e487b7100000000000000000000000000000000000000000000000000000000600052601160045260246000fd5b7f4e487b7100000000000000000000000000000000000000000000000000000000600052601260045260246000fd5b7f4e487b7100000000000000000000000000000000000000000000000000000000600052602160045260246000fd5b7f4e487b7100000000000000000000000000000000000000000000000000000000600052603260045260246000fd5b7f4e487b7100000000000000000000000000000000000000000000000000000000600052604160045260246000fd5b600080fd5b600080fd5b600080fd5b600080fd5b600080fd5b600080fd5b6000601f19601f8301169050919050565b50565b60028110611573576115726114a3565b5b50565b61157f8161132b565b811461158a57600080fd5b5056fea2646970667358221220e040f499150fa30b2e2b2234f319de4ba277f56de3f5a67dcac3c9e60ef3f5fb64736f6c63430008070033",
    "linkReferences": {},
    "deployedLinkReferences": {}
}